{
	"data": {
		"bytecode": {
			"linkReferences": {},
			"object": "608060405261012c600055600c600155602f60025534801561002057600080fd5b506101be806100306000396000f3fe608060405234801561001057600080fd5b506004361061002b5760003560e01c80634bb278f314610030575b600080fd5b61003861004e565b60405161004591906100a6565b60405180910390f35b600080601790506001546000541015801561006c5750600254600154105b1561009057808161007d91906100c1565b90506001548161008d919061011b565b90505b8091505090565b6100a08161014f565b82525050565b60006020820190506100bb6000830184610097565b92915050565b60006100cc8261014f565b91506100d78361014f565b9250817fffffffffffffffffffffffffffffffffffffffffffffffffffffffffffffffff04831182151516156101105761010f610159565b5b828202905092915050565b60006101268261014f565b91506101318361014f565b92508282101561014457610143610159565b5b828203905092915050565b6000819050919050565b7f4e487b7100000000000000000000000000000000000000000000000000000000600052601160045260246000fdfea2646970667358221220b6a8f3c8a8ebaa835837e80c041d6c53b25b15086363eb9835061d914fb0c7b364736f6c63430008070033",
			"opcodes": "PUSH1 0x80 PUSH1 0x40 MSTORE PUSH2 0x12C PUSH1 0x0 SSTORE PUSH1 0xC PUSH1 0x1 SSTORE PUSH1 0x2F PUSH1 0x2 SSTORE CALLVALUE DUP1 ISZERO PUSH2 0x20 JUMPI PUSH1 0x0 DUP1 REVERT JUMPDEST POP PUSH2 0x1BE DUP1 PUSH2 0x30 PUSH1 0x0 CODECOPY PUSH1 0x0 RETURN INVALID PUSH1 0x80 PUSH1 0x40 MSTORE CALLVALUE DUP1 ISZERO PUSH2 0x10 JUMPI PUSH1 0x0 DUP1 REVERT JUMPDEST POP PUSH1 0x4 CALLDATASIZE LT PUSH2 0x2B JUMPI PUSH1 0x0 CALLDATALOAD PUSH1 0xE0 SHR DUP1 PUSH4 0x4BB278F3 EQ PUSH2 0x30 JUMPI JUMPDEST PUSH1 0x0 DUP1 REVERT JUMPDEST PUSH2 0x38 PUSH2 0x4E JUMP JUMPDEST PUSH1 0x40 MLOAD PUSH2 0x45 SWAP2 SWAP1 PUSH2 0xA6 JUMP JUMPDEST PUSH1 0x40 MLOAD DUP1 SWAP2 SUB SWAP1 RETURN JUMPDEST PUSH1 0x0 DUP1 PUSH1 0x17 SWAP1 POP PUSH1 0x1 SLOAD PUSH1 0x0 SLOAD LT ISZERO DUP1 ISZERO PUSH2 0x6C JUMPI POP PUSH1 0x2 SLOAD PUSH1 0x1 SLOAD LT JUMPDEST ISZERO PUSH2 0x90 JUMPI DUP1 DUP2 PUSH2 0x7D SWAP2 SWAP1 PUSH2 0xC1 JUMP JUMPDEST SWAP1 POP PUSH1 0x1 SLOAD DUP2 PUSH2 0x8D SWAP2 SWAP1 PUSH2 0x11B JUMP JUMPDEST SWAP1 POP JUMPDEST DUP1 SWAP2 POP POP SWAP1 JUMP JUMPDEST PUSH2 0xA0 DUP2 PUSH2 0x14F JUMP JUMPDEST DUP3 MSTORE POP POP JUMP JUMPDEST PUSH1 0x0 PUSH1 0x20 DUP3 ADD SWAP1 POP PUSH2 0xBB PUSH1 0x0 DUP4 ADD DUP5 PUSH2 0x97 JUMP JUMPDEST SWAP3 SWAP2 POP POP JUMP JUMPDEST PUSH1 0x0 PUSH2 0xCC DUP3 PUSH2 0x14F JUMP JUMPDEST SWAP2 POP PUSH2 0xD7 DUP4 PUSH2 0x14F JUMP JUMPDEST SWAP3 POP DUP2 PUSH32 0xFFFFFFFFFFFFFFFFFFFFFFFFFFFFFFFFFFFFFFFFFFFFFFFFFFFFFFFFFFFFFFFF DIV DUP4 GT DUP3 ISZERO ISZERO AND ISZERO PUSH2 0x110 JUMPI PUSH2 0x10F PUSH2 0x159 JUMP JUMPDEST JUMPDEST DUP3 DUP3 MUL SWAP1 POP SWAP3 SWAP2 POP POP JUMP JUMPDEST PUSH1 0x0 PUSH2 0x126 DUP3 PUSH2 0x14F JUMP JUMPDEST SWAP2 POP PUSH2 0x131 DUP4 PUSH2 0x14F JUMP JUMPDEST SWAP3 POP DUP3 DUP3 LT ISZERO PUSH2 0x144 JUMPI PUSH2 0x143 PUSH2 0x159 JUMP JUMPDEST JUMPDEST DUP3 DUP3 SUB SWAP1 POP SWAP3 SWAP2 POP POP JUMP JUMPDEST PUSH1 0x0 DUP2 SWAP1 POP SWAP2 SWAP1 POP JUMP JUMPDEST PUSH32 0x4E487B7100000000000000000000000000000000000000000000000000000000 PUSH1 0x0 MSTORE PUSH1 0x11 PUSH1 0x4 MSTORE PUSH1 0x24 PUSH1 0x0 REVERT INVALID LOG2 PUSH5 0x6970667358 0x22 SLT KECCAK256 0xB6 0xA8 RETURN 0xC8 0xA8 0xEB 0xAA DUP4 PC CALLDATACOPY 0xE8 0xC DIV SAR PUSH13 0x53B25B15086363EB9835061D91 0x4F 0xB0 0xC7 0xB3 PUSH5 0x736F6C6343 STOP ADDMOD SMOD STOP CALLER "
		},
		"gasEstimates": {
			"creation": {
				"codeDepositCost": "89200",
				"executionCost": "66453",
				"totalCost": "155653"
			},
			"external": {
				"finalize()": "infinite"
			}
		},
		"methodIdentifiers": {
			"finalize()": "4bb278f3"
		}
	},
	"abi": [
		{
			"inputs": [],
			"name": "finalize",
			"outputs": [
				{
					"internalType": "uint256",
					"name": "",
					"type": "uint256"
				}
			],
			"stateMutability": "view",
			"type": "function"
		}
	]
}