{
	"data": {
		"bytecode": {
			"linkReferences": {},
			"object": "6080604052602d60005534801561001557600080fd5b5061015a806100256000396000f3fe608060405234801561001057600080fd5b506004361061002b5760003560e01c8063166e7bdd14610030575b600080fd5b61003861004e565b604051610045919061007a565b60405180910390f35b6000806000816000546100619190610095565b9050809250505090565b610074816100eb565b82525050565b600060208201905061008f600083018461006b565b92915050565b60006100a0826100eb565b91506100ab836100eb565b9250827fffffffffffffffffffffffffffffffffffffffffffffffffffffffffffffffff038211156100e0576100df6100f5565b5b828201905092915050565b6000819050919050565b7f4e487b7100000000000000000000000000000000000000000000000000000000600052601160045260246000fdfea2646970667358221220a51e99a6920f79f3a2aa77e7706966b0f70fa9186d540d678fbb71344fff72f964736f6c63430008070033",
			"opcodes": "PUSH1 0x80 PUSH1 0x40 MSTORE PUSH1 0x2D PUSH1 0x0 SSTORE CALLVALUE DUP1 ISZERO PUSH2 0x15 JUMPI PUSH1 0x0 DUP1 REVERT JUMPDEST POP PUSH2 0x15A DUP1 PUSH2 0x25 PUSH1 0x0 CODECOPY PUSH1 0x0 RETURN INVALID PUSH1 0x80 PUSH1 0x40 MSTORE CALLVALUE DUP1 ISZERO PUSH2 0x10 JUMPI PUSH1 0x0 DUP1 REVERT JUMPDEST POP PUSH1 0x4 CALLDATASIZE LT PUSH2 0x2B JUMPI PUSH1 0x0 CALLDATALOAD PUSH1 0xE0 SHR DUP1 PUSH4 0x166E7BDD EQ PUSH2 0x30 JUMPI JUMPDEST PUSH1 0x0 DUP1 REVERT JUMPDEST PUSH2 0x38 PUSH2 0x4E JUMP JUMPDEST PUSH1 0x40 MLOAD PUSH2 0x45 SWAP2 SWAP1 PUSH2 0x7A JUMP JUMPDEST PUSH1 0x40 MLOAD DUP1 SWAP2 SUB SWAP1 RETURN JUMPDEST PUSH1 0x0 DUP1 PUSH1 0x0 DUP2 PUSH1 0x0 SLOAD PUSH2 0x61 SWAP2 SWAP1 PUSH2 0x95 JUMP JUMPDEST SWAP1 POP DUP1 SWAP3 POP POP POP SWAP1 JUMP JUMPDEST PUSH2 0x74 DUP2 PUSH2 0xEB JUMP JUMPDEST DUP3 MSTORE POP POP JUMP JUMPDEST PUSH1 0x0 PUSH1 0x20 DUP3 ADD SWAP1 POP PUSH2 0x8F PUSH1 0x0 DUP4 ADD DUP5 PUSH2 0x6B JUMP JUMPDEST SWAP3 SWAP2 POP POP JUMP JUMPDEST PUSH1 0x0 PUSH2 0xA0 DUP3 PUSH2 0xEB JUMP JUMPDEST SWAP2 POP PUSH2 0xAB DUP4 PUSH2 0xEB JUMP JUMPDEST SWAP3 POP DUP3 PUSH32 0xFFFFFFFFFFFFFFFFFFFFFFFFFFFFFFFFFFFFFFFFFFFFFFFFFFFFFFFFFFFFFFFF SUB DUP3 GT ISZERO PUSH2 0xE0 JUMPI PUSH2 0xDF PUSH2 0xF5 JUMP JUMPDEST JUMPDEST DUP3 DUP3 ADD SWAP1 POP SWAP3 SWAP2 POP POP JUMP JUMPDEST PUSH1 0x0 DUP2 SWAP1 POP SWAP2 SWAP1 POP JUMP JUMPDEST PUSH32 0x4E487B7100000000000000000000000000000000000000000000000000000000 PUSH1 0x0 MSTORE PUSH1 0x11 PUSH1 0x4 MSTORE PUSH1 0x24 PUSH1 0x0 REVERT INVALID LOG2 PUSH5 0x6970667358 0x22 SLT KECCAK256 0xA5 0x1E SWAP10 0xA6 SWAP3 0xF PUSH26 0xF3A2AA77E7706966B0F70FA9186D540D678FBB71344FFF72F964 PUSH20 0x6F6C634300080700330000000000000000000000 "
		},
		"gasEstimates": {
			"creation": {
				"codeDepositCost": "69200",
				"executionCost": "22223",
				"totalCost": "91423"
			},
			"external": {
				"addValues()": "infinite"
			}
		},
		"methodIdentifiers": {
			"addValues()": "166e7bdd"
		}
	},
	"abi": [
		{
			"inputs": [],
			"name": "addValues",
			"outputs": [
				{
					"internalType": "uint256",
					"name": "",
					"type": "uint256"
				}
			],
			"stateMutability": "view",
			"type": "function"
		}
	]
}